{
  "contractName": "EscroWallet",
  "abi": [
    {
      "inputs": [
        {
          "internalType": "address",
          "name": "_payer",
          "type": "address"
        },
        {
          "internalType": "address payable",
          "name": "_payee",
          "type": "address"
        },
        {
          "internalType": "uint256",
          "name": "_amount",
          "type": "uint256"
        }
      ],
      "stateMutability": "nonpayable",
      "type": "constructor"
    },
    {
      "inputs": [],
      "name": "amount",
      "outputs": [
        {
          "internalType": "uint256",
          "name": "",
          "type": "uint256"
        }
      ],
      "stateMutability": "view",
      "type": "function",
      "constant": true
    },
    {
      "inputs": [],
      "name": "lawyer",
      "outputs": [
        {
          "internalType": "address",
          "name": "",
          "type": "address"
        }
      ],
      "stateMutability": "view",
      "type": "function",
      "constant": true
    },
    {
      "inputs": [],
      "name": "payee",
      "outputs": [
        {
          "internalType": "address payable",
          "name": "",
          "type": "address"
        }
      ],
      "stateMutability": "view",
      "type": "function",
      "constant": true
    },
    {
      "inputs": [],
      "name": "payer",
      "outputs": [
        {
          "internalType": "address",
          "name": "",
          "type": "address"
        }
      ],
      "stateMutability": "view",
      "type": "function",
      "constant": true
    },
    {
      "inputs": [],
      "name": "deposit",
      "outputs": [],
      "stateMutability": "payable",
      "type": "function",
      "payable": true
    },
    {
      "inputs": [],
      "name": "release",
      "outputs": [],
      "stateMutability": "nonpayable",
      "type": "function"
    },
    {
      "inputs": [],
      "name": "balanceOf",
      "outputs": [
        {
          "internalType": "uint256",
          "name": "",
          "type": "uint256"
        }
      ],
      "stateMutability": "view",
      "type": "function",
      "constant": true
    }
  ],
  "bytecode": "0x608060405234801561001057600080fd5b50604051610973380380610973833981810160405281019061003291906101da565b33600260006101000a81548173ffffffffffffffffffffffffffffffffffffffff021916908373ffffffffffffffffffffffffffffffffffffffff160217905550826000806101000a81548173ffffffffffffffffffffffffffffffffffffffff021916908373ffffffffffffffffffffffffffffffffffffffff16021790555081600160006101000a81548173ffffffffffffffffffffffffffffffffffffffff021916908373ffffffffffffffffffffffffffffffffffffffff1602179055508060038190555050505061022d565b600080fd5b600073ffffffffffffffffffffffffffffffffffffffff82169050919050565b600061013382610108565b9050919050565b61014381610128565b811461014e57600080fd5b50565b6000815190506101608161013a565b92915050565b600061017182610108565b9050919050565b61018181610166565b811461018c57600080fd5b50565b60008151905061019e81610178565b92915050565b6000819050919050565b6101b7816101a4565b81146101c257600080fd5b50565b6000815190506101d4816101ae565b92915050565b6000806000606084860312156101f3576101f2610103565b5b600061020186828701610151565b93505060206102128682870161018f565b9250506040610223868287016101c5565b9150509250925092565b6107378061023c6000396000f3fe6080604052600436106100705760003560e01c806386d1a69f1161004e57806386d1a69f146100f6578063aa8c217c1461010d578063ae90b21314610138578063d0e30db01461016357610070565b8063123119cd146100755780633bfb6e31146100a0578063722713f7146100cb575b600080fd5b34801561008157600080fd5b5061008a61016d565b6040516100979190610443565b60405180910390f35b3480156100ac57600080fd5b506100b5610191565b6040516100c29190610443565b60405180910390f35b3480156100d757600080fd5b506100e06101b7565b6040516100ed9190610477565b60405180910390f35b34801561010257600080fd5b5061010b6101bf565b005b34801561011957600080fd5b50610122610301565b60405161012f9190610477565b60405180910390f35b34801561014457600080fd5b5061014d610307565b60405161015a91906104b3565b60405180910390f35b61016b61032d565b005b60008054906101000a900473ffffffffffffffffffffffffffffffffffffffff1681565b600260009054906101000a900473ffffffffffffffffffffffffffffffffffffffff1681565b600047905090565b600260009054906101000a900473ffffffffffffffffffffffffffffffffffffffff1673ffffffffffffffffffffffffffffffffffffffff163373ffffffffffffffffffffffffffffffffffffffff161461024f576040517f08c379a000000000000000000000000000000000000000000000000000000000815260040161024690610551565b60405180910390fd5b600354471015610294576040517f08c379a000000000000000000000000000000000000000000000000000000000815260040161028b906105e3565b60405180910390fd5b600160009054906101000a900473ffffffffffffffffffffffffffffffffffffffff1673ffffffffffffffffffffffffffffffffffffffff166108fc6003549081150290604051600060405180830381858888f193505050501580156102fe573d6000803e3d6000fd5b50565b60035481565b600160009054906101000a900473ffffffffffffffffffffffffffffffffffffffff1681565b60008054906101000a900473ffffffffffffffffffffffffffffffffffffffff1673ffffffffffffffffffffffffffffffffffffffff163373ffffffffffffffffffffffffffffffffffffffff16146103bb576040517f08c379a00000000000000000000000000000000000000000000000000000000081526004016103b29061064f565b60405180910390fd5b600354341115610400576040517f08c379a00000000000000000000000000000000000000000000000000000000081526004016103f7906106e1565b60405180910390fd5b565b600073ffffffffffffffffffffffffffffffffffffffff82169050919050565b600061042d82610402565b9050919050565b61043d81610422565b82525050565b60006020820190506104586000830184610434565b92915050565b6000819050919050565b6104718161045e565b82525050565b600060208201905061048c6000830184610468565b92915050565b600061049d82610402565b9050919050565b6104ad81610492565b82525050565b60006020820190506104c860008301846104a4565b92915050565b600082825260208201905092915050565b7f6f6e6c79206c61777965722063616e2072656c65617365207468652066756e6460008201527f7300000000000000000000000000000000000000000000000000000000000000602082015250565b600061053b6021836104ce565b9150610546826104df565b604082019050919050565b6000602082019050818103600083015261056a8161052e565b9050919050565b7f63616e206e6f742072656c656173652066756e64732069662066756c6c20616d60008201527f6f756e74206e6f74207265636569766564000000000000000000000000000000602082015250565b60006105cd6031836104ce565b91506105d882610571565b604082019050919050565b600060208201905081810360008301526105fc816105c0565b9050919050565b7f6f6e6c792070617965722063616e206465706f73697420657468657200000000600082015250565b6000610639601c836104ce565b915061064482610603565b602082019050919050565b600060208201905081810360008301526106688161062c565b9050919050565b7f43616e206e6f742073656e64206d6f7265207468616e20457363726f7720416d60008201527f6f756e7400000000000000000000000000000000000000000000000000000000602082015250565b60006106cb6024836104ce565b91506106d68261066f565b604082019050919050565b600060208201905081810360008301526106fa816106be565b905091905056fea264697066735822122076744b3d1c5c3824d81f9b414404600bce6b230c999e8d6eccb7ee85e46b596964736f6c634300080a0033",
  "immutableReferences": {},
  "source": "// SPDX-License-Identifier: MIT\npragma solidity >=0.4.22 <0.9.0;\n\ncontract EscroWallet {\n  address public payer;\n  address payable public payee;\n  address public lawyer;\n  uint public amount;\n\n  constructor(address _payer, address payable _payee, uint _amount) {\n    lawyer = msg.sender;\n    payer = _payer;\n    payee = _payee;\n    amount = _amount;\n  }\n\n  function deposit() payable external {\n    require(msg.sender == payer, 'only payer can deposit ether');\n    require(msg.value <= amount, 'Can not send more than Escrow Amount');\n  }\n\n  function release() external {\n    require(msg.sender == lawyer, 'only lawyer can release the funds');\n    require(address(this).balance >= amount, 'can not release funds if full amount not received');\n    payee.transfer(amount);\n  }\n\n  function balanceOf() external view returns(uint) {\n    return (address(this).balance);\n  }\n  \n}\n",
  "sourcePath": "C:\\Sandip@IBM\\BlockChainDev\\Escrow\\contracts\\EscroWallet.sol",
  "compiler": {
    "name": "solc",
    "version": "0.8.10+commit.fc410830.Emscripten.clang"
  },
  "schemaVersion": "3.4.3",
  "updatedAt": "2022-03-15T12:27:39.844Z",
  "networkType": "ethereum",
  "devdoc": {
    "kind": "dev",
    "methods": {},
    "version": 1
  },
  "userdoc": {
    "kind": "user",
    "methods": {},
    "version": 1
  }
}